{
  "contractName": "Faucet",
  "abi": [
    {
      "inputs": [],
      "name": "getCurrentOwner",
      "outputs": [
        {
          "internalType": "address",
          "name": "",
          "type": "address"
        }
      ],
      "stateMutability": "view",
      "type": "function",
      "constant": true
    },
    {
      "inputs": [],
      "name": "numberOfFunders",
      "outputs": [
        {
          "internalType": "uint256",
          "name": "",
          "type": "uint256"
        }
      ],
      "stateMutability": "view",
      "type": "function",
      "constant": true
    },
    {
      "inputs": [],
      "name": "testFunc",
      "outputs": [
        {
          "internalType": "uint256",
          "name": "",
          "type": "uint256"
        }
      ],
      "stateMutability": "view",
      "type": "function",
      "constant": true
    },
    {
      "inputs": [],
      "name": "testNum",
      "outputs": [
        {
          "internalType": "uint256",
          "name": "",
          "type": "uint256"
        }
      ],
      "stateMutability": "view",
      "type": "function",
      "constant": true
    },
    {
      "inputs": [
        {
          "internalType": "address",
          "name": "newOwner",
          "type": "address"
        }
      ],
      "name": "transferOwnership",
      "outputs": [],
      "stateMutability": "nonpayable",
      "type": "function"
    },
    {
      "stateMutability": "payable",
      "type": "receive",
      "payable": true
    },
    {
      "inputs": [],
      "name": "emitLogs",
      "outputs": [
        {
          "internalType": "bytes32",
          "name": "",
          "type": "bytes32"
        }
      ],
      "stateMutability": "pure",
      "type": "function",
      "constant": true
    },
    {
      "inputs": [],
      "name": "addFunds",
      "outputs": [],
      "stateMutability": "payable",
      "type": "function",
      "payable": true
    },
    {
      "inputs": [],
      "name": "getAvailableFund",
      "outputs": [
        {
          "internalType": "uint256",
          "name": "",
          "type": "uint256"
        }
      ],
      "stateMutability": "view",
      "type": "function",
      "constant": true
    },
    {
      "inputs": [
        {
          "internalType": "uint256",
          "name": "withdrawAmount",
          "type": "uint256"
        }
      ],
      "name": "withdraw",
      "outputs": [],
      "stateMutability": "nonpayable",
      "type": "function"
    },
    {
      "inputs": [
        {
          "internalType": "uint256",
          "name": "index",
          "type": "uint256"
        }
      ],
      "name": "getFunderAtIndex",
      "outputs": [
        {
          "components": [
            {
              "internalType": "uint256",
              "name": "numberOfDonations",
              "type": "uint256"
            },
            {
              "internalType": "uint256",
              "name": "totalDonations",
              "type": "uint256"
            }
          ],
          "internalType": "struct Faucet.FunderInfo",
          "name": "funder",
          "type": "tuple"
        }
      ],
      "stateMutability": "view",
      "type": "function",
      "constant": true
    },
    {
      "inputs": [],
      "name": "getAllFunders",
      "outputs": [
        {
          "components": [
            {
              "internalType": "uint256",
              "name": "numberOfDonations",
              "type": "uint256"
            },
            {
              "internalType": "uint256",
              "name": "totalDonations",
              "type": "uint256"
            }
          ],
          "internalType": "struct Faucet.FunderInfo[]",
          "name": "",
          "type": "tuple[]"
        }
      ],
      "stateMutability": "view",
      "type": "function",
      "constant": true
    },
    {
      "inputs": [],
      "name": "justTesting",
      "outputs": [
        {
          "internalType": "uint256",
          "name": "",
          "type": "uint256"
        }
      ],
      "stateMutability": "pure",
      "type": "function",
      "constant": true
    }
  ],
  "bytecode": "0x608060405234801561001057600080fd5b50336000806101000a81548173ffffffffffffffffffffffffffffffffffffffff021916908373ffffffffffffffffffffffffffffffffffffffff16021790555060c860018190555061102a806100686000396000f3fe6080604052600436106100ab5760003560e01c8063a23f8a3d11610064578063a23f8a3d146101b7578063a26759cb146101e2578063ae28f1ed146101ec578063c218deca14610217578063dc79a7fc14610254578063f2fde38b1461027f576100b2565b8063037a417c146100b75780632e1a7d4d146100e25780636fbbb55d1461010b5780637966b4f6146101365780638e543a7c14610161578063a18a186b1461018c576100b2565b366100b257005b600080fd5b3480156100c357600080fd5b506100cc6102a8565b6040516100d99190610a12565b60405180910390f35b3480156100ee57600080fd5b5061010960048036038101906101049190610a5e565b6102b2565b005b34801561011757600080fd5b506101206103a7565b60405161012d9190610b78565b60405180910390f35b34801561014257600080fd5b5061014b6104da565b6040516101589190610bb3565b60405180910390f35b34801561016d57600080fd5b50610176610502565b6040516101839190610a12565b60405180910390f35b34801561019857600080fd5b506101a161059a565b6040516101ae9190610c0f565b60405180910390f35b3480156101c357600080fd5b506101cc610650565b6040516101d99190610a12565b60405180910390f35b6101ea610659565b005b3480156101f857600080fd5b50610201610862565b60405161020e9190610a12565b60405180910390f35b34801561022357600080fd5b5061023e60048036038101906102399190610a5e565b610868565b60405161024b9190610c59565b60405180910390f35b34801561026057600080fd5b50610269610908565b6040516102769190610a12565b60405180910390f35b34801561028b57600080fd5b506102a660048036038101906102a19190610ca0565b61090e565b005b6000600154905090565b8067016345785d8a00008111156102fe576040517f08c379a00000000000000000000000000000000000000000000000000000000081526004016102f590610d50565b60405180910390fd5b600354811115610343576040517f08c379a000000000000000000000000000000000000000000000000000000000815260040161033a90610de2565b60405180910390fd5b3373ffffffffffffffffffffffffffffffffffffffff166108fc839081150290604051600060405180830381858888f19350505050158015610389573d6000803e3d6000fd5b50816003600082825461039c9190610e31565b925050819055505050565b6060600060025467ffffffffffffffff8111156103c7576103c6610e65565b5b60405190808252806020026020018201604052801561040057816020015b6103ed6109df565b8152602001906001900390816103e55790505b50905060005b6002548110156104d257600460006005600084815260200190815260200160002060009054906101000a900473ffffffffffffffffffffffffffffffffffffffff1673ffffffffffffffffffffffffffffffffffffffff1673ffffffffffffffffffffffffffffffffffffffff168152602001908152602001600020604051806040016040529081600082015481526020016001820154815250508282815181106104b4576104b3610e94565b5b602002602001018190525080806104ca90610ec3565b915050610406565b508091505090565b60007f48656c6c6f20576562332c2066726f6d20466175636574000000000000000000905090565b60003373ffffffffffffffffffffffffffffffffffffffff1660008054906101000a900473ffffffffffffffffffffffffffffffffffffffff1673ffffffffffffffffffffffffffffffffffffffff1614610592576040517f08c379a000000000000000000000000000000000000000000000000000000000815260040161058990610f7e565b60405180910390fd5b600354905090565b60003373ffffffffffffffffffffffffffffffffffffffff1660008054906101000a900473ffffffffffffffffffffffffffffffffffffffff1673ffffffffffffffffffffffffffffffffffffffff161461062a576040517f08c379a000000000000000000000000000000000000000000000000000000000815260040161062190610f7e565b60405180910390fd5b60008054906101000a900473ffffffffffffffffffffffffffffffffffffffff16905090565b60006004905090565b600033905060003411156106815734600360008282546106799190610f9e565b925050819055505b6000600460008373ffffffffffffffffffffffffffffffffffffffff1673ffffffffffffffffffffffffffffffffffffffff1681526020019081526020016000206000015414156107ab576000600260008154809291906106e190610ec3565b91905055905060405180604001604052806001815260200134815250600460008473ffffffffffffffffffffffffffffffffffffffff1673ffffffffffffffffffffffffffffffffffffffff1681526020019081526020016000206000820151816000015560208201518160010155905050816005600083815260200190815260200160002060006101000a81548173ffffffffffffffffffffffffffffffffffffffff021916908373ffffffffffffffffffffffffffffffffffffffff1602179055505061085f565b6001600460008373ffffffffffffffffffffffffffffffffffffffff1673ffffffffffffffffffffffffffffffffffffffff16815260200190815260200160002060000160008282546107fe9190610f9e565b9250508190555034600460008373ffffffffffffffffffffffffffffffffffffffff1673ffffffffffffffffffffffffffffffffffffffff16815260200190815260200160002060010160008282546108579190610f9e565b925050819055505b50565b60015481565b6108706109df565b600460006005600085815260200190815260200160002060009054906101000a900473ffffffffffffffffffffffffffffffffffffffff1673ffffffffffffffffffffffffffffffffffffffff1673ffffffffffffffffffffffffffffffffffffffff168152602001908152602001600020604051806040016040529081600082015481526020016001820154815250509050919050565b60025481565b3373ffffffffffffffffffffffffffffffffffffffff1660008054906101000a900473ffffffffffffffffffffffffffffffffffffffff1673ffffffffffffffffffffffffffffffffffffffff161461099c576040517f08c379a000000000000000000000000000000000000000000000000000000000815260040161099390610f7e565b60405180910390fd5b806000806101000a81548173ffffffffffffffffffffffffffffffffffffffff021916908373ffffffffffffffffffffffffffffffffffffffff16021790555050565b604051806040016040528060008152602001600081525090565b6000819050919050565b610a0c816109f9565b82525050565b6000602082019050610a276000830184610a03565b92915050565b600080fd5b610a3b816109f9565b8114610a4657600080fd5b50565b600081359050610a5881610a32565b92915050565b600060208284031215610a7457610a73610a2d565b5b6000610a8284828501610a49565b91505092915050565b600081519050919050565b600082825260208201905092915050565b6000819050602082019050919050565b610ac0816109f9565b82525050565b604082016000820151610adc6000850182610ab7565b506020820151610aef6020850182610ab7565b50505050565b6000610b018383610ac6565b60408301905092915050565b6000602082019050919050565b6000610b2582610a8b565b610b2f8185610a96565b9350610b3a83610aa7565b8060005b83811015610b6b578151610b528882610af5565b9750610b5d83610b0d565b925050600181019050610b3e565b5085935050505092915050565b60006020820190508181036000830152610b928184610b1a565b905092915050565b6000819050919050565b610bad81610b9a565b82525050565b6000602082019050610bc86000830184610ba4565b92915050565b600073ffffffffffffffffffffffffffffffffffffffff82169050919050565b6000610bf982610bce565b9050919050565b610c0981610bee565b82525050565b6000602082019050610c246000830184610c00565b92915050565b604082016000820151610c406000850182610ab7565b506020820151610c536020850182610ab7565b50505050565b6000604082019050610c6e6000830184610c2a565b92915050565b610c7d81610bee565b8114610c8857600080fd5b50565b600081359050610c9a81610c74565b92915050565b600060208284031215610cb657610cb5610a2d565b5b6000610cc484828501610c8b565b91505092915050565b600082825260208201905092915050565b7f576974686472617720616d6f756e742063616e6e6f742062652067726561746560008201527f72207468616e20302e3120657468657200000000000000000000000000000000602082015250565b6000610d3a603083610ccd565b9150610d4582610cde565b604082019050919050565b60006020820190508181036000830152610d6981610d2d565b9050919050565b7f496e73756666696369656e742066756e6420666f72207468652072657175657360008201527f746564207769746864726177616c20616d6f756e740000000000000000000000602082015250565b6000610dcc603583610ccd565b9150610dd782610d70565b604082019050919050565b60006020820190508181036000830152610dfb81610dbf565b9050919050565b7f4e487b7100000000000000000000000000000000000000000000000000000000600052601160045260246000fd5b6000610e3c826109f9565b9150610e47836109f9565b925082821015610e5a57610e59610e02565b5b828203905092915050565b7f4e487b7100000000000000000000000000000000000000000000000000000000600052604160045260246000fd5b7f4e487b7100000000000000000000000000000000000000000000000000000000600052603260045260246000fd5b6000610ece826109f9565b91507fffffffffffffffffffffffffffffffffffffffffffffffffffffffffffffffff821415610f0157610f00610e02565b5b600182019050919050565b7f4f6e6c7920746865206f776e65722063616e206163636573732074686973206d60008201527f6574686f64000000000000000000000000000000000000000000000000000000602082015250565b6000610f68602583610ccd565b9150610f7382610f0c565b604082019050919050565b60006020820190508181036000830152610f9781610f5b565b9050919050565b6000610fa9826109f9565b9150610fb4836109f9565b9250827fffffffffffffffffffffffffffffffffffffffffffffffffffffffffffffffff03821115610fe957610fe8610e02565b5b82820190509291505056fea264697066735822122008dbfcfa446f3350ac4d06e37ad5dcab8d07b49df7f647f9a2de53cdc5d0326164736f6c634300080b0033",
  "immutableReferences": {},
  "source": "// SPDX-License-Identifier: MIT\npragma solidity >=0.4.22 <0.9.0;\n\nimport \"./Owned.sol\";\nimport \"./Logger.sol\";\nimport \"./IFaucet.sol\";\n\ncontract Faucet is Owned, Logger, IFaucet {\n  \n  // `public` - can be accessible throw the getter method outside the smart contract\n  // `private` - can be accessible only within the smart contract\n  // `internal` - can be accessible within the smart contract and also the derived smart contracts\n  uint public numberOfFunders;\n  uint private fund;\n  struct FunderInfo {\n    uint numberOfDonations;\n    uint totalDonations;\n  }\n  mapping(address => FunderInfo) private funders;\n  mapping(uint => address) private lookUpFunders;\n\n  /**\n      The modifier can be place at the definition of any method of the contract,\n      and is something like a middleware, \n      this `limitWithdrawal` modifier can be reused as a modifier\n      the `_` here will call the function body if the required conditions are passed\n   */\n  modifier limitWithdrawal(uint withdrawAmount){\n    require(withdrawAmount <= 100000000000000000, \"Withdraw amount cannot be greater than 0.1 ether\");\n    require(withdrawAmount <= fund, \"Insufficient fund for the requested withdrawal amount\");\n    _;\n  }\n\n  /**\n    - this is a special function\n    - it's called when you make a tx that doesn't specify function name to call\n    - It executes on calls to the contract with no data (calldata), e.g. calls made via send() or transfer().\n    \n    - External function are part of the contract interface \n      which means they can be called via contracts and other txs\n   */\n\n  receive() external payable {\n    // React to receiving ether\n  }\n\n  function emitLogs() public override pure returns(bytes32){\n    return \"Hello Web3, from Faucet\";\n  }\n\n  function addFunds() external payable{\n    address funderAddress = msg.sender;\n\n    if (msg.value > 0) {\n      fund += msg.value;\n    }\n\n    if(funders[funderAddress].numberOfDonations == 0){\n      uint index = numberOfFunders++;\n      \n      funders[funderAddress] = FunderInfo({\n        numberOfDonations : 1,\n        totalDonations : msg.value\n      });\n\n      lookUpFunders[index] = funderAddress;\n    } else {\n      funders[funderAddress].numberOfDonations += 1;\n      funders[funderAddress].totalDonations += msg.value;\n    }\n  }\n\n  function getAvailableFund() public view onlyOwner returns(uint) {\n    return fund;\n  }\n\n\n  function withdraw(uint withdrawAmount) public limitWithdrawal(withdrawAmount) {\n    payable(msg.sender).transfer(withdrawAmount);\n    fund -= withdrawAmount;\n  }\n\n  function getFunderAtIndex(uint index) public view returns ( FunderInfo memory funder) {\n    funder = funders[lookUpFunders[index]];\n  }\n\n  function getAllFunders() public view returns(FunderInfo[] memory) {\n    FunderInfo[] memory _funders = new FunderInfo[](numberOfFunders);\n    for (uint index = 0; index < numberOfFunders; index++) {\n      _funders[index] = funders[lookUpFunders[index]];\n    }\n\n    return _funders;\n  }\n\n  /**\n    modifiers: `pure` & `view` - no any gas fee incurs \n      view - indicates the given function will not change the storage state in any way\n      pure - even more strict, it will not even allow reading the storage state\n   */\n   function justTesting() external pure returns(uint) {\n     return 2 + 2;\n   }\n\n  // Transactions: generates chanages in storage state & incurs gas fees\n\n\n  // In order to talk to the nodes on the network, we can make JSON-RPC http call, \n  // which is actually being used internally by `truffle` & `web3`\n}\n\n// Block info\n// Nonce - a hash that when combined with the minHash proves that\n// the block has gone through proof of work(POW)\n// 8 bytes => 64 bits\n\n/**\n    Commands to:\n     // get an instance of Faucet contract\n     const instance = await Faucet.deployed();\n\n     1. add funds \n     // 1.5 ETH\n     => await instance.addFunds({ from: accounts[0], value: 1500000000000000000 });\n     \n     // 1.7 ETH\n     => await instance.addFunds({ from: accounts[1], value: 1700000000000000000 });\n\n     2. get fund\n     => (await instance.getAvailableFund()).toString()\n\n     3. get number of funders\n     => (await instance.numberOfFunders()).toString();\n\n     4. get funder at a given index\n     => await instance.getFunderAtIndex(0);\n     => await instance.getFunderAtIndex(1);\n     => await instance.getFunderAtIndex(2);\n\n     5. get a list of funders\n     => await instance.getAllFunders();\n\n     6. withdraw funds upto 1 ETH\n     // withdraw 0.5 ETH \n     => await instance.withdraw(\"50000000000000000\", { from: accounts[0] });\n\n     // try to withdraw 1.5 ETH, although the transaction is successfull, the transfer of ether isn't actually made\n     => await instance.withdraw(\"1500000000000000000\", { from: accounts[0] });\n\n     7. Access onlyOwner methods\n     => await instance.getCurrentOwner();\n     => await instance.transferOwnership(accounts[1]);\n     \n     // Will fail with error `Only the owner can access this method`, \n     //  since by default the from field is populated with accounts[0] but this account is not the owner\n     => await instance.getCurrentOwner();\n     \n     // Will fail with error `Only the owner can access this method`, \n     //  since by default the from field is populated with accounts[0] but this account is not the owner\n     => await instance.transferOwnership(accounts[0]);\n\n     => await instance.getCurrentOwner({ from: accounts[1] }); // will be executed successfully\n\n     8. Overriden emitLogs() method fromt the abstract Logger contract\n     => await instance.emitLogs();\n     => await instance.testFunc();\n */",
  "sourcePath": "/Users/amitmahato/ReadyToWork/RND/Blockchain/faucet/contracts/FaucetContract.sol",
  "compiler": {
    "name": "solc",
    "version": "0.8.11+commit.d7f03943.Emscripten.clang"
  },
  "schemaVersion": "3.4.4",
  "updatedAt": "2022-08-28T13:24:13.670Z",
  "networkType": "ethereum",
  "devdoc": {
    "kind": "dev",
    "methods": {},
    "version": 1
  },
  "userdoc": {
    "kind": "user",
    "methods": {
      "justTesting()": {
        "notice": "modifiers: `pure` & `view` - no any gas fee incurs  view - indicates the given function will not change the storage state in any way pure - even more strict, it will not even allow reading the storage state"
      }
    },
    "version": 1
  }
}