{
  "contractName": "Owned",
  "abi": [
    {
      "inputs": [],
      "stateMutability": "nonpayable",
      "type": "constructor"
    },
    {
      "inputs": [],
      "name": "getCurrentOwner",
      "outputs": [
        {
          "internalType": "address",
          "name": "",
          "type": "address"
        }
      ],
      "stateMutability": "view",
      "type": "function"
    },
    {
      "inputs": [
        {
          "internalType": "address",
          "name": "newOwner",
          "type": "address"
        }
      ],
      "name": "transferOwnership",
      "outputs": [],
      "stateMutability": "nonpayable",
      "type": "function"
    }
  ],
  "bytecode": "0x608060405234801561001057600080fd5b50336000806101000a81548173ffffffffffffffffffffffffffffffffffffffff021916908373ffffffffffffffffffffffffffffffffffffffff16021790555061038f806100606000396000f3fe608060405234801561001057600080fd5b50600436106100365760003560e01c8063a18a186b1461003b578063f2fde38b14610059575b600080fd5b610043610075565b604051610050919061023d565b60405180910390f35b610073600480360381019061006e9190610289565b61012b565b005b60003373ffffffffffffffffffffffffffffffffffffffff1660008054906101000a900473ffffffffffffffffffffffffffffffffffffffff1673ffffffffffffffffffffffffffffffffffffffff1614610105576040517f08c379a00000000000000000000000000000000000000000000000000000000081526004016100fc90610339565b60405180910390fd5b60008054906101000a900473ffffffffffffffffffffffffffffffffffffffff16905090565b3373ffffffffffffffffffffffffffffffffffffffff1660008054906101000a900473ffffffffffffffffffffffffffffffffffffffff1673ffffffffffffffffffffffffffffffffffffffff16146101b9576040517f08c379a00000000000000000000000000000000000000000000000000000000081526004016101b090610339565b60405180910390fd5b806000806101000a81548173ffffffffffffffffffffffffffffffffffffffff021916908373ffffffffffffffffffffffffffffffffffffffff16021790555050565b600073ffffffffffffffffffffffffffffffffffffffff82169050919050565b6000610227826101fc565b9050919050565b6102378161021c565b82525050565b6000602082019050610252600083018461022e565b92915050565b600080fd5b6102668161021c565b811461027157600080fd5b50565b6000813590506102838161025d565b92915050565b60006020828403121561029f5761029e610258565b5b60006102ad84828501610274565b91505092915050565b600082825260208201905092915050565b7f4f6e6c7920746865206f776e65722063616e206163636573732074686973206d60008201527f6574686f64000000000000000000000000000000000000000000000000000000602082015250565b60006103236025836102b6565b915061032e826102c7565b604082019050919050565b6000602082019050818103600083015261035281610316565b905091905056fea26469706673582212207c2a9744356f409d4ecb725151df99041d813e7cebedd8ef6c3733a6eb4557b164736f6c634300080b0033",
  "immutableReferences": {},
  "source": "// SPDX-License-Identifier: MIT\npragma solidity >=0.4.22 <0.9.0;\n\ncontract Owned {\n  address private owner;\n\n  constructor(){\n    owner = msg.sender;\n  }\n\n  /**\n      `onlyOwner` modifier can be applied to methods that should be accessed ony by the contract creator\n   */\n  modifier onlyOwner(){\n    require(owner == msg.sender, \"Only the owner can access this method\");\n    _;\n  }\n\n  function getCurrentOwner() external view onlyOwner returns(address){\n    return owner;\n  }\n\n  function transferOwnership(address newOwner) external onlyOwner {\n    owner = newOwner;\n  }\n}\n",
  "sourcePath": "/Users/amitmahato/ReadyToWork/RND/Blockchain/faucet/contracts/Owned.sol",
  "compiler": {
    "name": "solc",
    "version": "0.8.11+commit.d7f03943.Emscripten.clang"
  },
  "schemaVersion": "3.4.4",
  "updatedAt": "2022-08-28T05:35:47.716Z",
  "devdoc": {
    "kind": "dev",
    "methods": {},
    "version": 1
  },
  "userdoc": {
    "kind": "user",
    "methods": {},
    "version": 1
  }
}