{
  "contractName": "Storage",
  "abi": [
    {
      "inputs": [],
      "stateMutability": "nonpayable",
      "type": "constructor"
    },
    {
      "inputs": [],
      "name": "a",
      "outputs": [
        {
          "internalType": "uint8",
          "name": "",
          "type": "uint8"
        }
      ],
      "stateMutability": "view",
      "type": "function"
    },
    {
      "inputs": [
        {
          "internalType": "uint256",
          "name": "",
          "type": "uint256"
        }
      ],
      "name": "ac",
      "outputs": [
        {
          "internalType": "uint256",
          "name": "",
          "type": "uint256"
        }
      ],
      "stateMutability": "view",
      "type": "function"
    },
    {
      "inputs": [],
      "name": "b",
      "outputs": [
        {
          "internalType": "uint16",
          "name": "",
          "type": "uint16"
        }
      ],
      "stateMutability": "view",
      "type": "function"
    },
    {
      "inputs": [],
      "name": "c",
      "outputs": [
        {
          "internalType": "address",
          "name": "",
          "type": "address"
        }
      ],
      "stateMutability": "view",
      "type": "function"
    },
    {
      "inputs": [],
      "name": "e",
      "outputs": [
        {
          "internalType": "uint64",
          "name": "",
          "type": "uint64"
        }
      ],
      "stateMutability": "view",
      "type": "function"
    },
    {
      "inputs": [],
      "name": "f",
      "outputs": [
        {
          "internalType": "uint256",
          "name": "",
          "type": "uint256"
        }
      ],
      "stateMutability": "view",
      "type": "function"
    },
    {
      "inputs": [],
      "name": "g",
      "outputs": [
        {
          "internalType": "uint8",
          "name": "",
          "type": "uint8"
        }
      ],
      "stateMutability": "view",
      "type": "function"
    },
    {
      "inputs": [],
      "name": "h",
      "outputs": [
        {
          "internalType": "uint256",
          "name": "",
          "type": "uint256"
        }
      ],
      "stateMutability": "view",
      "type": "function"
    },
    {
      "inputs": [],
      "name": "i",
      "outputs": [
        {
          "internalType": "uint8",
          "name": "",
          "type": "uint8"
        }
      ],
      "stateMutability": "view",
      "type": "function"
    },
    {
      "inputs": [],
      "name": "j",
      "outputs": [
        {
          "internalType": "uint8",
          "name": "",
          "type": "uint8"
        }
      ],
      "stateMutability": "view",
      "type": "function"
    }
  ],
  "bytecode": "0x608060405260076000806101000a81548160ff021916908360ff160217905550600a600060016101000a81548161ffff021916908361ffff16021790555073648faad551af1da6d6556f0e3c41b37b6055bad1600060036101000a81548173ffffffffffffffffffffffffffffffffffffffff021916908373ffffffffffffffffffffffffffffffffffffffff1602179055506001600060176101000a81548160ff021916908315150217905550600f600060186101000a81548167ffffffffffffffff021916908367ffffffffffffffff16021790555060c86001556028600260006101000a81548160ff021916908360ff160217905550602d600260016101000a81548160ff021916908360ff1602179055506103156003556028600460006101000a81548160ff021916908360ff16021790555034801561014257600080fd5b506007600190806001815401808255809150506001900390600052602060002001600090919091909150556007600a908060018154018082558091505060019003906000526020600020016000909190919091505560076064908060018154018082558091505060019003906000526020600020016000909190919091505560286005600060048152602001908152602001600020819055506046600560006007815260200190815260200160002081905550606460066000737a02f64cfe9a38a4ecfe4a91601ab789c1bfeb9473ffffffffffffffffffffffffffffffffffffffff1673ffffffffffffffffffffffffffffffffffffffff168152602001908152602001600020819055506104808061025d6000396000f3fe608060405234801561001057600080fd5b506004361061009e5760003560e01c8063b8c9d36511610066578063b8c9d3651461014b578063c3da42b814610169578063e2179b8e14610187578063e5aa3d58146101a5578063ffae15ba146101c35761009e565b80630dbe671f146100a357806326121ff0146100c15780634d7b6d50146100df5780634df7e3d01461010f578063b582ec5f1461012d575b600080fd5b6100ab6101e1565b6040516100b891906102cb565b60405180910390f35b6100c96101f2565b6040516100d691906102ff565b60405180910390f35b6100f960048036038101906100f4919061034b565b6101f8565b60405161010691906102ff565b60405180910390f35b61011761021c565b6040516101249190610395565b60405180910390f35b610135610230565b60405161014291906102cb565b60405180910390f35b610153610243565b60405161016091906102ff565b60405180910390f35b610171610249565b60405161017e91906103f1565b60405180910390f35b61018f61026f565b60405161019c91906102cb565b60405180910390f35b6101ad610282565b6040516101ba91906102cb565b60405180910390f35b6101cb610295565b6040516101d8919061042f565b60405180910390f35b60008054906101000a900460ff1681565b60015481565b6007818154811061020857600080fd5b906000526020600020016000915090505481565b600060019054906101000a900461ffff1681565b600260019054906101000a900460ff1681565b60035481565b600060039054906101000a900473ffffffffffffffffffffffffffffffffffffffff1681565b600260009054906101000a900460ff1681565b600460009054906101000a900460ff1681565b600060189054906101000a900467ffffffffffffffff1681565b600060ff82169050919050565b6102c5816102af565b82525050565b60006020820190506102e060008301846102bc565b92915050565b6000819050919050565b6102f9816102e6565b82525050565b600060208201905061031460008301846102f0565b92915050565b600080fd5b610328816102e6565b811461033357600080fd5b50565b6000813590506103458161031f565b92915050565b6000602082840312156103615761036061031a565b5b600061036f84828501610336565b91505092915050565b600061ffff82169050919050565b61038f81610378565b82525050565b60006020820190506103aa6000830184610386565b92915050565b600073ffffffffffffffffffffffffffffffffffffffff82169050919050565b60006103db826103b0565b9050919050565b6103eb816103d0565b82525050565b600060208201905061040660008301846103e2565b92915050565b600067ffffffffffffffff82169050919050565b6104298161040c565b82525050565b60006020820190506104446000830184610420565b9291505056fea26469706673582212207b7bcc425a081705022189254acab2a5c0a0425ed8614e8f0a94197580c799ad64736f6c634300080b0033",
  "immutableReferences": {},
  "source": "// SPDX-License-Identifier: MIT\npragma solidity >=0.4.22 <0.9.0;\n\n\n/**\n * address -> 20 bytes\n *\n * uint256 -> 32 bytes\n * uint128 -> 16 bytes\n * uint64  ->  8 bytes\n * uint32  ->  4 bytes\n * uint16  ->  2 bytes\n * uint8   ->  1 byte\n *\n * bool    ->  1 byte\n **/\n\n\ncontract Storage {\n\n\tuint8 public a = 7; // 1 byte -> slot 0 [cumulative -> 1 byte]\n\tuint16 public b = 10; // 2 bytes -> slot 0 [cumulative -> 1+2 = 3 bytes]\n\taddress public c = 0x648FaaD551af1DA6d6556f0E3C41B37B6055bAD1; // 20 bytes -> slot 0 [cumulative -> 3+20 = 23 bytes]\n\tbool d = true; // 1 byte -> slot 0 [cumulative -> 23 + 1 = 24 bytes]\n\tuint64 public e = 15; // 8 bytes -> slot 0 [cumulative -> 24 + 8 = 32 byte]\n\t\n  uint256 public f = 200; // 32 bytes -> slot 1\n\t\n  uint8 public g = 40; // 1 byte -> slot 2 [1 byte from LSB]\n  uint8 public j = 45; // 1 byte -> slot 2 [1 byte after LSB] (total 2 bytes from slot 2 are used and still 30 bytes are empty)\n  uint256 public h = 789; // 32 bytes -> slot 3\n  uint8 public i = 40; // 1 byte -> slot 2, 3 or 4 ? -> takes the slot 4, which means slot 2 still has unused space\n\n  /**\n      Location of mapping in the storage is calculated in a different way\n      The location is calculated by finding the keccak256 encoding of the\n      combination of the key and the slot\n      i.e. location = keccak256(key . slot)\n      ex: if key = 1 and slot = 5:\n      32 bytes of key (64 characters) + 32 bytes of slot (64 characters) encoded by keccak256\n      location = keccak256(00000000000000000000000000000000000000000000000000000000000000010000000000000000000000000000000000000000000000000000000000000005)\n   */\n  mapping(uint => uint) aa; // slot 5\n  mapping(address => uint) ab; // slot 6\n\n  /**\n      Location of dynamic array in the storage is calculated in following way:\n      \n      `location = hexadecimal( decimal(keccak256(32 bytes representation of slot)) + index of element in decimal)`\n\n      or\n\n      `location = keccak256(32 bytes representation of slot)) + hexadecimal( index of element in decimal )`\n\n      Ex: here the slot is 7, i.e. 0x0000000000000000000000000000000000000000000000000000000000000007\n      => keccak256(\"0x0000000000000000000000000000000000000000000000000000000000000007\") \n      => ee2a4bc7db81da2b7164e56b3649b1e2a09c58c455b15dabddd9146c7582cebc\n\n      So, the location of the items at corresponding index will be:\n      index | location in storage\n      0   ->  a66cc928b5edb82af9bd49922954155ab7b0942694bea4ce44661d9a8736c688 + 0x0\n            = a66cc928b5edb82af9bd49922954155ab7b0942694bea4ce44661d9a8736c688\n\n      1   ->  a66cc928b5edb82af9bd49922954155ab7b0942694bea4ce44661d9a8736c688 + 0x1\n            = a66cc928b5edb82af9bd49922954155ab7b0942694bea4ce44661d9a8736c689\n          \n      2   ->  a66cc928b5edb82af9bd49922954155ab7b0942694bea4ce44661d9a8736c688 + 0x2\n            = a66cc928b5edb82af9bd49922954155ab7b0942694bea4ce44661d9a8736c68a\n          \n      3   ->  a66cc928b5edb82af9bd49922954155ab7b0942694bea4ce44661d9a8736c688 + 0x3\n            = a66cc928b5edb82af9bd49922954155ab7b0942694bea4ce44661d9a8736c68b\n          \n      4   ->  a66cc928b5edb82af9bd49922954155ab7b0942694bea4ce44661d9a8736c688 + 0x4\n            = a66cc928b5edb82af9bd49922954155ab7b0942694bea4ce44661d9a8736c68c\n  */\n  uint[] public ac; // slot 7\n  \n  constructor(){\n    ac.push(1); // index 0\n    ac.push(10); // index 1\n    ac.push(100); // index 2\n\n    aa[4] = 40;\n    aa[7] = 70;\n\n    ab[0x7a02f64Cfe9a38a4ecFe4A91601aB789c1bFeb94] = 100;\n  }\n\n  /**\n    1. aa[4]\n      location for aa[4] = keccak256(0x00000000000000000000000000000000000000000000000000000000000000040000000000000000000000000000000000000000000000000000000000000005)\n                        = 0x3eec716f11ba9e820c81ca75eb978ffb45831ef8b7a53e5e422c26008e1ca6d5\n      `web3.eth.getStorageAt(\"0x2890b9494a202F2D537Beb65E6100a8899E165a1\", \"0x3eec716f11ba9e820c81ca75eb978ffb45831ef8b7a53e5e422c26008e1ca6d5\")`\n      Output => '0x28' -> 40 in decimal\n    \n    2. aa[7]\n      location for aa[4] = keccak256(0x00000000000000000000000000000000000000000000000000000000000000070000000000000000000000000000000000000000000000000000000000000005)\n                        = 0xeddb6698d7c569ff62ff64f1f1492bf14a54594835ba0faac91f84b4f5d81460\n      `web3.eth.getStorageAt(\"0x2890b9494a202F2D537Beb65E6100a8899E165a1\", \"0xeddb6698d7c569ff62ff64f1f1492bf14a54594835ba0faac91f84b4f5d81460\")`\n      Output => '0x46' -> 70 in decimal\n    \n    3. ab[0x7a02f64Cfe9a38a4ecFe4A91601aB789c1bFeb94]\n      location for aa[4] = keccak256(0x0000000000000000000000007a02f64Cfe9a38a4ecFe4A91601aB789c1bFeb940000000000000000000000000000000000000000000000000000000000000006)\n                        = 0x84d93e274c0e77176bc83245f84088aba339fe46f5e1cb36896b98c667cd33a1\n      `web3.eth.getStorageAt(\"0x2890b9494a202F2D537Beb65E6100a8899E165a1\", \"0x84d93e274c0e77176bc83245f84088aba339fe46f5e1cb36896b98c667cd33a1\")`\n      Output => '0x64' -> 100 in decimal\n  */\n\n\n  /**\n    After deploying the contract to the Ganache Network and getting the storage from contract address at slot 0\n  \n    truffle(development)> const instance = await Storage.deployed()\n    truffle(development)> web3.eth.getStorageAt(instance.address, 0)\n    Output: 0x0f01648faad551af1da6d6556f0e3c41b37b6055bad1000a07\n    Dissecting it from right side, for varaibles value from top, according to size of bytes:\n    0x 0f 01 648faad551af1da6d6556f0e3c41b37b6055bad1 000a 07\n\n    truffle(development)> web3.eth.getStorageAt(instance.address, 1)\n    Dissected Output: 0x c8 -> hexadecimal value for 200 i.e. uint256 public f = 200\n\n    truffle(development)> web3.eth.getStorageAt(instance.address, 2)\n    Dissected Output: 0x 28 -> hexadecimal value for 40 i.e. uint8 public g = 40\n\n    truffle(development)> web3.eth.getStorageAt(instance.address, 3)\n    Dissected Output: 0x 0315 -> hexadecimal value for 789 i.e. uint256 public h = 789\n   */\n\n}",
  "sourcePath": "/Users/amitmahato/ReadyToWork/RND/Blockchain/faucet/contracts/Storage.sol",
  "compiler": {
    "name": "solc",
    "version": "0.8.11+commit.d7f03943.Emscripten.clang"
  },
  "schemaVersion": "3.4.4",
  "updatedAt": "2022-08-28T05:35:47.718Z",
  "devdoc": {
    "kind": "dev",
    "methods": {},
    "version": 1
  },
  "userdoc": {
    "kind": "user",
    "methods": {
      "ac(uint256)": {
        "notice": "Location of dynamic array in the storage is calculated in following way: `location = hexadecimal( decimal(keccak256(32 bytes representation of slot)) + index of element in decimal)` or `location = keccak256(32 bytes representation of slot)) + hexadecimal( index of element in decimal )` Ex: here the slot is 7, i.e. 0x0000000000000000000000000000000000000000000000000000000000000007 => keccak256(\"0x0000000000000000000000000000000000000000000000000000000000000007\")  => ee2a4bc7db81da2b7164e56b3649b1e2a09c58c455b15dabddd9146c7582cebc So, the location of the items at corresponding index will be: index | location in storage 0   ->  a66cc928b5edb82af9bd49922954155ab7b0942694bea4ce44661d9a8736c688 + 0x0 = a66cc928b5edb82af9bd49922954155ab7b0942694bea4ce44661d9a8736c688 1   ->  a66cc928b5edb82af9bd49922954155ab7b0942694bea4ce44661d9a8736c688 + 0x1 = a66cc928b5edb82af9bd49922954155ab7b0942694bea4ce44661d9a8736c689 2   ->  a66cc928b5edb82af9bd49922954155ab7b0942694bea4ce44661d9a8736c688 + 0x2 = a66cc928b5edb82af9bd49922954155ab7b0942694bea4ce44661d9a8736c68a 3   ->  a66cc928b5edb82af9bd49922954155ab7b0942694bea4ce44661d9a8736c688 + 0x3 = a66cc928b5edb82af9bd49922954155ab7b0942694bea4ce44661d9a8736c68b 4   ->  a66cc928b5edb82af9bd49922954155ab7b0942694bea4ce44661d9a8736c688 + 0x4 = a66cc928b5edb82af9bd49922954155ab7b0942694bea4ce44661d9a8736c68c"
      }
    },
    "notice": "address -> 20 bytes uint256 -> 32 bytes uint128 -> 16 bytes uint64  ->  8 bytes uint32  ->  4 bytes uint16  ->  2 bytes uint8   ->  1 byte bool    ->  1 byte*",
    "version": 1
  }
}